{
  "contractName": "EcommerceStore",
  "abi": [
    {
      "inputs": [],
      "stateMutability": "nonpayable",
      "type": "constructor"
    },
    {
      "inputs": [],
      "name": "productIndex",
      "outputs": [
        {
          "internalType": "uint256",
          "name": "",
          "type": "uint256"
        }
      ],
      "stateMutability": "view",
      "type": "function",
      "constant": true
    },
    {
      "inputs": [
        {
          "internalType": "string",
          "name": "_name",
          "type": "string"
        },
        {
          "internalType": "string",
          "name": "_category",
          "type": "string"
        },
        {
          "internalType": "string",
          "name": "_imageLink",
          "type": "string"
        },
        {
          "internalType": "string",
          "name": "_descLink",
          "type": "string"
        },
        {
          "internalType": "uint256",
          "name": "_auctionStartTime",
          "type": "uint256"
        },
        {
          "internalType": "uint256",
          "name": "_auctionEndTime",
          "type": "uint256"
        },
        {
          "internalType": "uint256",
          "name": "_startPrice",
          "type": "uint256"
        },
        {
          "internalType": "uint256",
          "name": "_productCondition",
          "type": "uint256"
        }
      ],
      "name": "addProductToStore",
      "outputs": [],
      "stateMutability": "nonpayable",
      "type": "function"
    },
    {
      "inputs": [
        {
          "internalType": "uint256",
          "name": "_productId",
          "type": "uint256"
        }
      ],
      "name": "getProduct",
      "outputs": [
        {
          "internalType": "string[10]",
          "name": "",
          "type": "string[10]"
        },
        {
          "internalType": "string[10]",
          "name": "",
          "type": "string[10]"
        }
      ],
      "stateMutability": "view",
      "type": "function",
      "constant": true
    },
    {
      "inputs": [
        {
          "internalType": "uint256",
          "name": "_productId",
          "type": "uint256"
        },
        {
          "internalType": "bytes32",
          "name": "_bid",
          "type": "bytes32"
        }
      ],
      "name": "bid",
      "outputs": [
        {
          "internalType": "bool",
          "name": "",
          "type": "bool"
        }
      ],
      "stateMutability": "payable",
      "type": "function",
      "payable": true
    },
    {
      "inputs": [
        {
          "internalType": "uint256",
          "name": "_productId",
          "type": "uint256"
        },
        {
          "internalType": "string",
          "name": "_amount",
          "type": "string"
        },
        {
          "internalType": "string",
          "name": "_secret",
          "type": "string"
        }
      ],
      "name": "revealBid",
      "outputs": [],
      "stateMutability": "nonpayable",
      "type": "function"
    },
    {
      "inputs": [
        {
          "internalType": "uint256",
          "name": "_productId",
          "type": "uint256"
        }
      ],
      "name": "highestBidderInfo",
      "outputs": [
        {
          "internalType": "address",
          "name": "",
          "type": "address"
        },
        {
          "internalType": "uint256",
          "name": "",
          "type": "uint256"
        },
        {
          "internalType": "uint256",
          "name": "",
          "type": "uint256"
        }
      ],
      "stateMutability": "view",
      "type": "function",
      "constant": true
    },
    {
      "inputs": [
        {
          "internalType": "uint256",
          "name": "_productId",
          "type": "uint256"
        }
      ],
      "name": "totalBids",
      "outputs": [
        {
          "internalType": "uint256",
          "name": "",
          "type": "uint256"
        }
      ],
      "stateMutability": "view",
      "type": "function",
      "constant": true
    }
  ],
  "bytecode": "0x608060405234801561001057600080fd5b506000808190555061228f806100276000396000f3fe6080604052600436106100705760003560e01c8063c897d5a61161004e578063c897d5a614610119578063ce818ea914610144578063ea1591bb14610183578063f85f196e146101b357610070565b806328e3d19014610075578063a508b955146100b2578063b9db15b4146100db575b600080fd5b34801561008157600080fd5b5061009c600480360381019061009791906119cc565b6101dc565b6040516100a99190611d46565b60405180910390f35b3480156100be57600080fd5b506100d960048036038101906100d491906118ba565b610271565b005b3480156100e757600080fd5b5061010260048036038101906100fd91906119cc565b610507565b604051610110929190611c94565b60405180910390f35b34801561012557600080fd5b5061012e610b54565b60405161013b9190611d46565b60405180910390f35b34801561015057600080fd5b5061016b600480360381019061016691906119cc565b610b5a565b60405161017a93929190611c5d565b60405180910390f35b61019d600480360381019061019891906119f5565b610c22565b6040516101aa9190611ccb565b60405180910390f35b3480156101bf57600080fd5b506101da60048036038101906101d59190611a31565b610ebb565b005b600080600160006002600086815260200190815260200160002060009054906101000a900473ffffffffffffffffffffffffffffffffffffffff1673ffffffffffffffffffffffffffffffffffffffff1673ffffffffffffffffffffffffffffffffffffffff168152602001908152602001600020600084815260200190815260200160002090508060070154915050919050565b82841061027d57600080fd5b600160008082825461028f9190611e1c565b925050819055506000600160003373ffffffffffffffffffffffffffffffffffffffff1673ffffffffffffffffffffffffffffffffffffffff16815260200190815260200160002060008054815260200190815260200160002090508881600101908051906020019061030392919061175d565b508781600201908051906020019061031c92919061175d565b508681600301908051906020019061033592919061175d565b508581600401908051906020019061034e92919061175d565b508481600501819055508381600601819055508281600801819055508160018111156103a3577f4e487b7100000000000000000000000000000000000000000000000000000000600052602160045260246000fd5b81600c0160016101000a81548160ff021916908360018111156103ef577f4e487b7100000000000000000000000000000000000000000000000000000000600052602160045260246000fd5b0217905550600081600c0160006101000a81548160ff02191690836002811115610442577f4e487b7100000000000000000000000000000000000000000000000000000000600052602160045260246000fd5b021790555060008160090160006101000a81548173ffffffffffffffffffffffffffffffffffffffff021916908373ffffffffffffffffffffffffffffffffffffffff160217905550600081600a0181905550600081600b01819055506000816007018190555033600260008054815260200190815260200160002060006101000a81548173ffffffffffffffffffffffffffffffffffffffff021916908373ffffffffffffffffffffffffffffffffffffffff160217905550505050505050505050565b61050f6117e3565b6105176117e3565b6000600160006002600087815260200190815260200160002060009054906101000a900473ffffffffffffffffffffffffffffffffffffffff1673ffffffffffffffffffffffffffffffffffffffff1673ffffffffffffffffffffffffffffffffffffffff1681526020019081526020016000206000858152602001908152602001600020905060006040518061014001604052806040518060400160405280600281526020017f696400000000000000000000000000000000000000000000000000000000000081525081526020016040518060400160405280600481526020017f6e616d650000000000000000000000000000000000000000000000000000000081525081526020016040518060400160405280600881526020017f63617465676f727900000000000000000000000000000000000000000000000081525081526020016040518060400160405280600981526020017f696d6167654c696e6b000000000000000000000000000000000000000000000081525081526020016040518060400160405280600881526020017f646573634c696e6b00000000000000000000000000000000000000000000000081525081526020016040518060400160405280601081526020017f61756374696f6e537461727454696d650000000000000000000000000000000081525081526020016040518060400160405280600e81526020017f61756374696f6e456e6454696d6500000000000000000000000000000000000081525081526020016040518060400160405280600a81526020017f737461727450726963650000000000000000000000000000000000000000000081525081526020016040518060400160405280600681526020017f737461747573000000000000000000000000000000000000000000000000000081525081526020016040518060400160405280600981526020017f636f6e646974696f6e0000000000000000000000000000000000000000000000815250815250905060006040518061014001604052806108158560000154611428565b815260200184600101805461082990612006565b80601f016020809104026020016040519081016040528092919081815260200182805461085590612006565b80156108a25780601f10610877576101008083540402835291602001916108a2565b820191906000526020600020905b81548152906001019060200180831161088557829003601f168201915b505050505081526020018460020180546108bb90612006565b80601f01602080910402602001604051908101604052809291908181526020018280546108e790612006565b80156109345780601f1061090957610100808354040283529160200191610934565b820191906000526020600020905b81548152906001019060200180831161091757829003601f168201915b5050505050815260200184600301805461094d90612006565b80601f016020809104026020016040519081016040528092919081815260200182805461097990612006565b80156109c65780601f1061099b576101008083540402835291602001916109c6565b820191906000526020600020905b8154815290600101906020018083116109a957829003601f168201915b505050505081526020018460040180546109df90612006565b80601f0160208091040260200160405190810160405280929190818152602001828054610a0b90612006565b8015610a585780601f10610a2d57610100808354040283529160200191610a58565b820191906000526020600020905b815481529060010190602001808311610a3b57829003601f168201915b50505050508152602001610a6f8560050154611428565b8152602001610a818560060154611428565b8152602001610a938560080154611428565b8152602001610aea85600c0160009054906101000a900460ff166002811115610ae5577f4e487b7100000000000000000000000000000000000000000000000000000000600052602160045260246000fd5b611428565b8152602001610b4185600c0160019054906101000a900460ff166001811115610b3c577f4e487b7100000000000000000000000000000000000000000000000000000000600052602160045260246000fd5b611428565b8152509050818194509450505050915091565b60005481565b600080600080600160006002600088815260200190815260200160002060009054906101000a900473ffffffffffffffffffffffffffffffffffffffff1673ffffffffffffffffffffffffffffffffffffffff1673ffffffffffffffffffffffffffffffffffffffff168152602001908152602001600020600086815260200190815260200160002090508060090160009054906101000a900473ffffffffffffffffffffffffffffffffffffffff1681600a015482600b0154935093509350509193909250565b600080600160006002600087815260200190815260200160002060009054906101000a900473ffffffffffffffffffffffffffffffffffffffff1673ffffffffffffffffffffffffffffffffffffffff1673ffffffffffffffffffffffffffffffffffffffff168152602001908152602001600020600085815260200190815260200160002090508060050154421015610cbb57600080fd5b8060060154421115610ccc57600080fd5b80600801543411610cdc57600080fd5b600073ffffffffffffffffffffffffffffffffffffffff1681600d0160003373ffffffffffffffffffffffffffffffffffffffff1673ffffffffffffffffffffffffffffffffffffffff168152602001908152602001600020600085815260200190815260200160002060000160009054906101000a900473ffffffffffffffffffffffffffffffffffffffff1673ffffffffffffffffffffffffffffffffffffffff1614610d8a57600080fd5b60405180608001604052803373ffffffffffffffffffffffffffffffffffffffff1681526020018581526020013481526020016000151581525081600d0160003373ffffffffffffffffffffffffffffffffffffffff1673ffffffffffffffffffffffffffffffffffffffff168152602001908152602001600020600085815260200190815260200160002060008201518160000160006101000a81548173ffffffffffffffffffffffffffffffffffffffff021916908373ffffffffffffffffffffffffffffffffffffffff160217905550602082015181600101556040820151816002015560608201518160030160006101000a81548160ff0219169083151502179055509050506001816007016000828254610ea99190611e1c565b92505081905550600191505092915050565b6000600160006002600087815260200190815260200160002060009054906101000a900473ffffffffffffffffffffffffffffffffffffffff1673ffffffffffffffffffffffffffffffffffffffff1673ffffffffffffffffffffffffffffffffffffffff1681526020019081526020016000206000858152602001908152602001600020905080600601544211610f88576040517f08c379a0000000000000000000000000000000000000000000000000000000008152600401610f7f90611d06565b60405180910390fd5b60008383604051602001610f9d929190611c39565b604051602081830303815290604052805190602001209050600082600d0160003373ffffffffffffffffffffffffffffffffffffffff1673ffffffffffffffffffffffffffffffffffffffff16815260200190815260200160002060008381526020019081526020016000206040518060800160405290816000820160009054906101000a900473ffffffffffffffffffffffffffffffffffffffff1673ffffffffffffffffffffffffffffffffffffffff1673ffffffffffffffffffffffffffffffffffffffff16815260200160018201548152602001600282015481526020016003820160009054906101000a900460ff1615151515815250509050600073ffffffffffffffffffffffffffffffffffffffff16816000015173ffffffffffffffffffffffffffffffffffffffff161161110e576040517f08c379a000000000000000000000000000000000000000000000000000000000815260040161110590611d26565b60405180910390fd5b600015158160600151151514611159576040517f08c379a000000000000000000000000000000000000000000000000000000000815260040161115090611ce6565b60405180910390fd5b600080611165876115d5565b9050808360400151101561117f578260400151915061135f565b600073ffffffffffffffffffffffffffffffffffffffff168560090160009054906101000a900473ffffffffffffffffffffffffffffffffffffffff1673ffffffffffffffffffffffffffffffffffffffff16141561124857338560090160006101000a81548173ffffffffffffffffffffffffffffffffffffffff021916908373ffffffffffffffffffffffffffffffffffffffff1602179055508085600a0181905550846008015485600b01819055508083604001516112419190611efd565b915061135e565b84600a01548111156113335784600a015485600b01819055508460090160009054906101000a900473ffffffffffffffffffffffffffffffffffffffff1673ffffffffffffffffffffffffffffffffffffffff166108fc86600a01549081150290604051600060405180830381858888f193505050501580156112cf573d6000803e3d6000fd5b50338560090160006101000a81548173ffffffffffffffffffffffffffffffffffffffff021916908373ffffffffffffffffffffffffffffffffffffffff1602179055508085600a018190555080836040015161132c9190611efd565b915061135d565b84600b0154811115611354578085600b01819055508260400151915061135c565b826040015191505b5b5b5b600185600d0160003373ffffffffffffffffffffffffffffffffffffffff1673ffffffffffffffffffffffffffffffffffffffff168152602001908152602001600020600086815260200190815260200160002060030160006101000a81548160ff021916908315150217905550600082111561141e573373ffffffffffffffffffffffffffffffffffffffff166108fc839081150290604051600060405180830381858888f1935050505015801561141c573d6000803e3d6000fd5b505b5050505050505050565b60606000821415611470576040518060400160405280600181526020017f300000000000000000000000000000000000000000000000000000000000000081525090506115d0565b600082905060005b600082146114a257808061148b90612069565b915050600a8261149b9190611e72565b9150611478565b60008167ffffffffffffffff8111156114e4577f4e487b7100000000000000000000000000000000000000000000000000000000600052604160045260246000fd5b6040519080825280601f01601f1916602001820160405280156115165781602001600182028036833780820191505090505b5090505b600085146115c95760018261152f9190611efd565b9150600a8561153e91906120b2565b603061154a9190611e1c565b60f81b818381518110611586577f4e487b7100000000000000000000000000000000000000000000000000000000600052603260045260246000fd5b60200101907effffffffffffffffffffffffffffffffffffffffffffffffffffffffffffff1916908160001a905350600a856115c29190611e72565b945061151a565b8093505050505b919050565b6000808290506000805b825181101561175257603060f81b838281518110611626577f4e487b7100000000000000000000000000000000000000000000000000000000600052603260045260246000fd5b602001015160f81c60f81b7effffffffffffffffffffffffffffffffffffffffffffffffffffffffffffff1916101580156116ca5750603960f81b83828151811061169a577f4e487b7100000000000000000000000000000000000000000000000000000000600052603260045260246000fd5b602001015160f81c60f81b7effffffffffffffffffffffffffffffffffffffffffffffffffffffffffffff191611155b1561173f57603083828151811061170a577f4e487b7100000000000000000000000000000000000000000000000000000000600052603260045260246000fd5b602001015160f81c60f81b60f81c6117229190611f31565b60ff16600a836117329190611ea3565b61173c9190611e1c565b91505b808061174a90612069565b9150506115df565b508092505050919050565b82805461176990612006565b90600052602060002090601f01602090048101928261178b57600085556117d2565b82601f106117a457805160ff19168380011785556117d2565b828001600101855582156117d2579182015b828111156117d15782518255916020019190600101906117b6565b5b5090506117df919061180b565b5090565b604051806101400160405280600a905b60608152602001906001900390816117f35790505090565b5b8082111561182457600081600090555060010161180c565b5090565b600061183b61183684611d86565b611d61565b90508281526020810184848401111561185357600080fd5b61185e848285611fc4565b509392505050565b6000813590506118758161222b565b92915050565b600082601f83011261188c57600080fd5b813561189c848260208601611828565b91505092915050565b6000813590506118b481612242565b92915050565b600080600080600080600080610100898b0312156118d757600080fd5b600089013567ffffffffffffffff8111156118f157600080fd5b6118fd8b828c0161187b565b985050602089013567ffffffffffffffff81111561191a57600080fd5b6119268b828c0161187b565b975050604089013567ffffffffffffffff81111561194357600080fd5b61194f8b828c0161187b565b965050606089013567ffffffffffffffff81111561196c57600080fd5b6119788b828c0161187b565b95505060806119898b828c016118a5565b94505060a061199a8b828c016118a5565b93505060c06119ab8b828c016118a5565b92505060e06119bc8b828c016118a5565b9150509295985092959890939650565b6000602082840312156119de57600080fd5b60006119ec848285016118a5565b91505092915050565b60008060408385031215611a0857600080fd5b6000611a16858286016118a5565b9250506020611a2785828601611866565b9150509250929050565b600080600060608486031215611a4657600080fd5b6000611a54868287016118a5565b935050602084013567ffffffffffffffff811115611a7157600080fd5b611a7d8682870161187b565b925050604084013567ffffffffffffffff811115611a9a57600080fd5b611aa68682870161187b565b9150509250925092565b6000611abc8383611b57565b905092915050565b611acd81611f65565b82525050565b6000611ade82611dc1565b611ae88185611de4565b935083602082028501611afa85611db7565b8060005b85811015611b365784840389528151611b178582611ab0565b9450611b2283611dd7565b925060208a01995050600181019050611afe565b50829750879550505050505092915050565b611b5181611f77565b82525050565b6000611b6282611dcc565b611b6c8185611def565b9350611b7c818560208601611fd3565b611b858161219f565b840191505092915050565b6000611b9b82611dcc565b611ba58185611e11565b9350611bb5818560208601611fd3565b80840191505092915050565b6000611bce601183611e00565b9150611bd9826121b0565b602082019050919050565b6000611bf1600c83611e00565b9150611bfc826121d9565b602082019050919050565b6000611c14600f83611e00565b9150611c1f82612202565b602082019050919050565b611c3381611fad565b82525050565b6000611c458285611b90565b9150611c518284611b90565b91508190509392505050565b6000606082019050611c726000830186611ac4565b611c7f6020830185611c2a565b611c8c6040830184611c2a565b949350505050565b60006040820190508181036000830152611cae8185611ad3565b90508181036020830152611cc28184611ad3565b90509392505050565b6000602082019050611ce06000830184611b48565b92915050565b60006020820190508181036000830152611cff81611bc1565b9050919050565b60006020820190508181036000830152611d1f81611be4565b9050919050565b60006020820190508181036000830152611d3f81611c07565b9050919050565b6000602082019050611d5b6000830184611c2a565b92915050565b6000611d6b611d7c565b9050611d778282612038565b919050565b6000604051905090565b600067ffffffffffffffff821115611da157611da0612170565b5b611daa8261219f565b9050602081019050919050565b6000819050919050565b6000600a9050919050565b600081519050919050565b6000602082019050919050565b600081905092915050565b600082825260208201905092915050565b600082825260208201905092915050565b600081905092915050565b6000611e2782611fad565b9150611e3283611fad565b9250827fffffffffffffffffffffffffffffffffffffffffffffffffffffffffffffffff03821115611e6757611e666120e3565b5b828201905092915050565b6000611e7d82611fad565b9150611e8883611fad565b925082611e9857611e97612112565b5b828204905092915050565b6000611eae82611fad565b9150611eb983611fad565b9250817fffffffffffffffffffffffffffffffffffffffffffffffffffffffffffffffff0483118215151615611ef257611ef16120e3565b5b828202905092915050565b6000611f0882611fad565b9150611f1383611fad565b925082821015611f2657611f256120e3565b5b828203905092915050565b6000611f3c82611fb7565b9150611f4783611fb7565b925082821015611f5a57611f596120e3565b5b828203905092915050565b6000611f7082611f8d565b9050919050565b60008115159050919050565b6000819050919050565b600073ffffffffffffffffffffffffffffffffffffffff82169050919050565b6000819050919050565b600060ff82169050919050565b82818337600083830152505050565b60005b83811015611ff1578082015181840152602081019050611fd6565b83811115612000576000848401525b50505050565b6000600282049050600182168061201e57607f821691505b6020821081141561203257612031612141565b5b50919050565b6120418261219f565b810181811067ffffffffffffffff821117156120605761205f612170565b5b80604052505050565b600061207482611fad565b91507fffffffffffffffffffffffffffffffffffffffffffffffffffffffffffffffff8214156120a7576120a66120e3565b5b600182019050919050565b60006120bd82611fad565b91506120c883611fad565b9250826120d8576120d7612112565b5b828206905092915050565b7f4e487b7100000000000000000000000000000000000000000000000000000000600052601160045260246000fd5b7f4e487b7100000000000000000000000000000000000000000000000000000000600052601260045260246000fd5b7f4e487b7100000000000000000000000000000000000000000000000000000000600052602260045260246000fd5b7f4e487b7100000000000000000000000000000000000000000000000000000000600052604160045260246000fd5b6000601f19601f8301169050919050565b7f62696420686173206265656e206465616c000000000000000000000000000000600082015250565b7f5374696c6c20696e206269640000000000000000000000000000000000000000600082015250565b7f626964646572206e6f74206e756c6c0000000000000000000000000000000000600082015250565b61223481611f83565b811461223f57600080fd5b50565b61224b81611fad565b811461225657600080fd5b5056fea2646970667358221220fb722d7738ac97905676a9107d5674c0dda156b9f64a5179cc8a1fdbc9c15e4864736f6c63430008040033",
  "immutableReferences": {},
  "source": "// SPDX-License-Identifier: MIT\npragma solidity >=0.6.21;\nimport \"@openzeppelin/contracts/utils/Strings.sol\";\n\ncontract EcommerceStore {\n    enum ProductStatus {\n        Open,\n        Sold,\n        UnSold\n    }\n    enum ProductCondition {\n        New,\n        Used\n    }\n\n    uint256 public productIndex;\n    mapping(address => mapping(uint256 => Product)) stores;\n    mapping(uint256 => address) productIdInStore; // id  \n\n    struct Product {\n        uint256 id;\n        string name;\n        string category;\n        string imageLink;\n        string descLink;\n        uint256 auctionStartTime; // \n        uint256 auctionEndTime; // \n        uint256 totalBids;\n        uint256 startPrice; // \n        address highestBidder; // \n        uint256 highestBid;\n        uint256 secondHighestBid;\n        ProductStatus status;\n        ProductCondition condition;\n        mapping(address => mapping(bytes32 => Bid)) bids;\n    }\n\n    struct Bid {\n        address bidder;\n        uint256 productId;\n        uint256 value;\n        bool revealed;\n    }\n\n    constructor() {\n        productIndex = 0;\n    }\n\n    function addProductToStore(\n        string memory _name,\n        string memory _category,\n        string memory _imageLink,\n        string memory _descLink,\n        uint256 _auctionStartTime,\n        uint256 _auctionEndTime,\n        uint256 _startPrice,\n        uint256 _productCondition\n    ) public {\n        require(_auctionStartTime < _auctionEndTime);\n        productIndex += 1;\n        Product storage product = stores[msg.sender][productIndex];\n        product.name = _name;\n        product.category = _category;\n        product.imageLink = _imageLink;\n        product.descLink = _descLink;\n        product.auctionStartTime = _auctionStartTime;\n        product.auctionEndTime = _auctionEndTime;\n        product.startPrice = _startPrice;\n        product.condition = ProductCondition(_productCondition);\n        product.status = ProductStatus.Open;\n        product.highestBidder = address(0);\n        product.highestBid = 0;\n        product.secondHighestBid = 0;\n        product.totalBids = 0;\n        productIdInStore[productIndex] = msg.sender;\n    }\n\n    function getProduct(uint256 _productId)\n        public\n        view\n        returns (string[10] memory, string[10] memory)\n    {\n        Product storage product = stores[productIdInStore[_productId]][\n            _productId\n        ];\n\n        string[10] memory returnNames = [\n            \"id\",\n            \"name\",\n            \"category\",\n            \"imageLink\",\n            \"descLink\",\n            \"auctionStartTime\",\n            \"auctionEndTime\",\n            \"startPrice\",\n            \"status\",\n            \"condition\"\n        ];\n\n        string[10] memory returnData = [\n            Strings.toString(product.id),\n            product.name,\n            product.category,\n            product.imageLink,\n            product.descLink,\n            Strings.toString(product.auctionStartTime),\n            Strings.toString(product.auctionEndTime),\n            Strings.toString(product.startPrice),\n            Strings.toString(uint(product.status)),\n            Strings.toString(uint(product.condition))\n        ];\n\n        return (\n            returnNames,\n            returnData\n        );\n    }\n\n    function bid(uint256 _productId, bytes32 _bid)\n        public\n        payable\n        returns (bool)\n    {\n        Product storage product = stores[productIdInStore[_productId]][\n            _productId\n        ];\n        require(block.timestamp >= product.auctionStartTime);\n        require(block.timestamp <= product.auctionEndTime);\n        require(msg.value > product.startPrice);\n        require(product.bids[msg.sender][_bid].bidder == address(0));\n        product.bids[msg.sender][_bid] = Bid(\n            msg.sender,\n            _productId,\n            msg.value,\n            false\n        );\n        product.totalBids += 1;\n        return true;\n    }\n\n    function revealBid(\n        uint256 _productId,\n        string memory _amount,\n        string memory _secret\n    ) public {\n        Product storage product = stores[productIdInStore[_productId]][\n            _productId\n        ];\n        require(block.timestamp > product.auctionEndTime, \"Still in bid\");\n        bytes32 sealedBid = keccak256(abi.encodePacked(_amount, _secret));\n        Bid memory bidInfo = product.bids[msg.sender][sealedBid];\n        require(bidInfo.bidder > address(0), \"bidder not null\");\n        require(bidInfo.revealed == false, \"bid has been deal\");\n\n        uint256 refund;\n        uint256 amount = stringToUint(_amount);\n\n        if (bidInfo.value < amount) {\n            refund = bidInfo.value;\n        } else {\n            if (address(product.highestBidder) == address(0)) {\n                product.highestBidder = msg.sender;\n                product.highestBid = amount;\n                product.secondHighestBid = product.startPrice;\n                refund = bidInfo.value - amount;\n            } else {\n                if (amount > product.highestBid) {\n                    product.secondHighestBid = product.highestBid;\n                    payable(product.highestBidder).transfer(product.highestBid);\n                    product.highestBidder = msg.sender;\n                    product.highestBid = amount;\n                    refund = bidInfo.value - amount;\n                } else if (amount > product.secondHighestBid) {\n                    product.secondHighestBid = amount;\n                    refund = bidInfo.value;\n                } else {\n                    refund = bidInfo.value;\n                }\n            }\n        }\n        product.bids[msg.sender][sealedBid].revealed = true;\n\n        if (refund > 0) {\n            payable(msg.sender).transfer(refund);\n        }\n    }\n\n    function highestBidderInfo(uint256 _productId)\n        public\n        view\n        returns (\n            address,\n            uint256,\n            uint256\n        )\n    {\n        Product storage product = stores[productIdInStore[_productId]][\n            _productId\n        ];\n        return (\n            product.highestBidder,\n            product.highestBid,\n            product.secondHighestBid\n        );\n    }\n\n    function totalBids(uint256 _productId) public view returns (uint256) {\n        Product storage product = stores[productIdInStore[_productId]][\n            _productId\n        ];\n        return product.totalBids;\n    }\n\n    function stringToUint(string memory s) private pure returns (uint256) {\n        bytes memory b = bytes(s);\n        uint256 result = 0;\n        for (uint256 i = 0; i < b.length; i++) {\n            if (b[i] >= 0x30 && b[i] <= 0x39) {\n                result = result * 10 + (uint8(b[i]) - 48);\n            }\n        }\n        return result;\n    }\n}\n",
  "sourcePath": "/Users/meizu/Resources/truffle-study/vue-truffle/contracts/EcommerceStore.sol",
  "compiler": {
    "name": "solc",
    "version": "0.8.4+commit.c7e474f2.Emscripten.clang"
  },
  "schemaVersion": "3.4.5",
  "updatedAt": "2022-03-09T07:48:27.221Z",
  "networkType": "ethereum",
  "devdoc": {
    "kind": "dev",
    "methods": {},
    "version": 1
  },
  "userdoc": {
    "kind": "user",
    "methods": {},
    "version": 1
  }
}